{
  "address": "0xe73AB11A77054B784732D4CB395C5301056F853a",
  "abi": [
    {
      "inputs": [
        {
          "internalType": "address",
          "name": "priceFeedAddress",
          "type": "address"
        },
        {
          "internalType": "address",
          "name": "vrfCoordinatorAddress",
          "type": "address"
        },
        {
          "internalType": "address",
          "name": "linkAddress",
          "type": "address"
        },
        {
          "internalType": "uint256",
          "name": "fee_payable",
          "type": "uint256"
        },
        {
          "internalType": "bytes32",
          "name": "keyHash",
          "type": "bytes32"
        }
      ],
      "stateMutability": "nonpayable",
      "type": "constructor"
    },
    {
      "anonymous": false,
      "inputs": [
        {
          "indexed": true,
          "internalType": "address",
          "name": "previousOwner",
          "type": "address"
        },
        {
          "indexed": true,
          "internalType": "address",
          "name": "newOwner",
          "type": "address"
        }
      ],
      "name": "OwnershipTransferred",
      "type": "event"
    },
    {
      "anonymous": false,
      "inputs": [
        {
          "indexed": false,
          "internalType": "bytes32",
          "name": "requestId",
          "type": "bytes32"
        }
      ],
      "name": "RequestedRandomNumber",
      "type": "event"
    },
    {
      "inputs": [],
      "name": "endLottery",
      "outputs": [],
      "stateMutability": "nonpayable",
      "type": "function"
    },
    {
      "inputs": [],
      "name": "enter",
      "outputs": [],
      "stateMutability": "payable",
      "type": "function"
    },
    {
      "inputs": [],
      "name": "fee",
      "outputs": [
        {
          "internalType": "uint256",
          "name": "",
          "type": "uint256"
        }
      ],
      "stateMutability": "view",
      "type": "function"
    },
    {
      "inputs": [],
      "name": "getEntranceFee",
      "outputs": [
        {
          "internalType": "uint256",
          "name": "",
          "type": "uint256"
        }
      ],
      "stateMutability": "view",
      "type": "function"
    },
    {
      "inputs": [],
      "name": "keyhash",
      "outputs": [
        {
          "internalType": "bytes32",
          "name": "",
          "type": "bytes32"
        }
      ],
      "stateMutability": "view",
      "type": "function"
    },
    {
      "inputs": [],
      "name": "latestRandomNumber",
      "outputs": [
        {
          "internalType": "uint256",
          "name": "",
          "type": "uint256"
        }
      ],
      "stateMutability": "view",
      "type": "function"
    },
    {
      "inputs": [],
      "name": "latestWinner",
      "outputs": [
        {
          "internalType": "address payable",
          "name": "",
          "type": "address"
        }
      ],
      "stateMutability": "view",
      "type": "function"
    },
    {
      "inputs": [],
      "name": "lotteryState",
      "outputs": [
        {
          "internalType": "enum Lottery.LOTTERY_STATE",
          "name": "",
          "type": "uint8"
        }
      ],
      "stateMutability": "view",
      "type": "function"
    },
    {
      "inputs": [],
      "name": "owner",
      "outputs": [
        {
          "internalType": "address",
          "name": "",
          "type": "address"
        }
      ],
      "stateMutability": "view",
      "type": "function"
    },
    {
      "inputs": [
        {
          "internalType": "uint256",
          "name": "",
          "type": "uint256"
        }
      ],
      "name": "players",
      "outputs": [
        {
          "internalType": "address payable",
          "name": "",
          "type": "address"
        }
      ],
      "stateMutability": "view",
      "type": "function"
    },
    {
      "inputs": [
        {
          "internalType": "bytes32",
          "name": "requestId",
          "type": "bytes32"
        },
        {
          "internalType": "uint256",
          "name": "randomness",
          "type": "uint256"
        }
      ],
      "name": "rawFulfillRandomness",
      "outputs": [],
      "stateMutability": "nonpayable",
      "type": "function"
    },
    {
      "inputs": [],
      "name": "renounceOwnership",
      "outputs": [],
      "stateMutability": "nonpayable",
      "type": "function"
    },
    {
      "inputs": [],
      "name": "startLottery",
      "outputs": [],
      "stateMutability": "nonpayable",
      "type": "function"
    },
    {
      "inputs": [
        {
          "internalType": "address",
          "name": "newOwner",
          "type": "address"
        }
      ],
      "name": "transferOwnership",
      "outputs": [],
      "stateMutability": "nonpayable",
      "type": "function"
    },
    {
      "inputs": [],
      "name": "usdEntranceFee",
      "outputs": [
        {
          "internalType": "uint256",
          "name": "",
          "type": "uint256"
        }
      ],
      "stateMutability": "view",
      "type": "function"
    }
  ],
  "transactionHash": "0x4e979f506454296300b71f2ef06f4d627c211fe3b313956c6c037c90c7104ac6",
  "args": [
    "0x9326BFA02ADD2366b30bacB125260Af641031331",
    "0xb3dCcb4Cf7a26f6cf6B120Cf5A73875B7BBc655B",
    "0x01BE23585060835E02B77ef475b0Cc51aA1e0709",
    "100000000000000000",
    "0x2ed0feb3e7fd2022120aa84fab1945545a9f2ffc9076fd6156fa96eaff4c1311"
  ],
  "numDeployments": 1,
  "solcInputHash": "714c8730a332a22978524a1e6695986d",
  "bytecode": "0x60c06040523480156200001157600080fd5b50604051620020d4380380620020d4833981810160405281019062000037919062000296565b8383620000596200004d6200018560201b60201c565b6200018d60201b60201c565b8173ffffffffffffffffffffffffffffffffffffffff1660a08173ffffffffffffffffffffffffffffffffffffffff1660601b815250508073ffffffffffffffffffffffffffffffffffffffff1660808173ffffffffffffffffffffffffffffffffffffffff1660601b8152505050506802b5e3af16b188000060038190555084600460006101000a81548173ffffffffffffffffffffffffffffffffffffffff021916908373ffffffffffffffffffffffffffffffffffffffff1602179055506001600460146101000a81548160ff0219169083600281111562000167577f4e487b7100000000000000000000000000000000000000000000000000000000600052602160045260246000fd5b021790555081600581905550806006819055505050505050620003ae565b600033905090565b60008060009054906101000a900473ffffffffffffffffffffffffffffffffffffffff169050816000806101000a81548173ffffffffffffffffffffffffffffffffffffffff021916908373ffffffffffffffffffffffffffffffffffffffff1602179055508173ffffffffffffffffffffffffffffffffffffffff168173ffffffffffffffffffffffffffffffffffffffff167f8be0079c531659141344cd1fd0a4f28419497f9722a3daafe3b4186f6b6457e060405160405180910390a35050565b600081519050620002628162000360565b92915050565b60008151905062000279816200037a565b92915050565b600081519050620002908162000394565b92915050565b600080600080600060a08688031215620002af57600080fd5b6000620002bf8882890162000251565b9550506020620002d28882890162000251565b9450506040620002e58882890162000251565b9350506060620002f8888289016200027f565b92505060806200030b8882890162000268565b9150509295509295909350565b6000620003258262000336565b9050919050565b6000819050919050565b600073ffffffffffffffffffffffffffffffffffffffff82169050919050565b6000819050919050565b6200036b8162000318565b81146200037757600080fd5b50565b62000385816200032c565b81146200039157600080fd5b50565b6200039f8162000356565b8114620003ab57600080fd5b50565b60805160601c60a05160601c611cf3620003e1600039600081816108730152610c0901526000610bcd0152611cf36000f3fe6080604052600436106100e85760003560e01c8063715018a61161008a578063e70f65ac11610059578063e70f65ac14610288578063e97dcb62146102b3578063f2fde38b146102bd578063f71d96cb146102e6576100e8565b8063715018a6146101f25780638da5cb5b1461020957806394985ddd14610234578063ddca3f431461025d576100e8565b8063160344e2116100c6578063160344e21461015a57806316fe73ec146101715780636939864b1461019c57806369ebe78e146101c7576100e8565b806306ef53e0146100ed57806309bc33a7146101185780631593a8c714610143575b600080fd5b3480156100f957600080fd5b50610102610323565b60405161010f919061173a565b60405180910390f35b34801561012457600080fd5b5061012d610349565b60405161013a9190611937565b60405180910390f35b34801561014f57600080fd5b50610158610435565b005b34801561016657600080fd5b5061016f610610565b005b34801561017d57600080fd5b506101866107a1565b6040516101939190611937565b60405180910390f35b3480156101a857600080fd5b506101b16107a7565b6040516101be919061181c565b60405180910390f35b3480156101d357600080fd5b506101dc6107ba565b6040516101e99190611793565b60405180910390f35b3480156101fe57600080fd5b506102076107c0565b005b34801561021557600080fd5b5061021e610848565b60405161022b919061171f565b60405180910390f35b34801561024057600080fd5b5061025b600480360381019061025691906112f3565b610871565b005b34801561026957600080fd5b5061027261090d565b60405161027f9190611937565b60405180910390f35b34801561029457600080fd5b5061029d610913565b6040516102aa9190611937565b60405180910390f35b6102bb610919565b005b3480156102c957600080fd5b506102e460048036038101906102df91906112a1565b610a8a565b005b3480156102f257600080fd5b5061030d6004803603810190610308919061132f565b610b82565b60405161031a919061173a565b60405180910390f35b600760009054906101000a900473ffffffffffffffffffffffffffffffffffffffff1681565b600080600460009054906101000a900473ffffffffffffffffffffffffffffffffffffffff1673ffffffffffffffffffffffffffffffffffffffff1663feaf968c6040518163ffffffff1660e01b815260040160a06040518083038186803b1580156103b457600080fd5b505afa1580156103c8573d6000803e3d6000fd5b505050506040513d601f19601f820116820180604052508101906103ec9190611358565b50505091505060006402540be400826104059190611a06565b9050600081670de0b6b3a76400006003546104209190611a06565b61042a91906119d5565b905080935050505090565b61043d610bc1565b73ffffffffffffffffffffffffffffffffffffffff1661045b610848565b73ffffffffffffffffffffffffffffffffffffffff16146104b1576040517f08c379a00000000000000000000000000000000000000000000000000000000081526004016104a8906118d7565b60405180910390fd5b600060028111156104eb577f4e487b7100000000000000000000000000000000000000000000000000000000600052602160045260246000fd5b600460149054906101000a900460ff166002811115610533577f4e487b7100000000000000000000000000000000000000000000000000000000600052602160045260246000fd5b14610573576040517f08c379a000000000000000000000000000000000000000000000000000000000815260040161056a906118b7565b60405180910390fd5b6002600460146101000a81548160ff021916908360028111156105bf577f4e487b7100000000000000000000000000000000000000000000000000000000600052602160045260246000fd5b021790555060006105d4600654600554610bc9565b90507fc620a79baed7e5f06637aa5ab699c2b03ee40b2ae3ba4a91ed1eb0bd00b8ea3b816040516106059190611793565b60405180910390a150565b610618610bc1565b73ffffffffffffffffffffffffffffffffffffffff16610636610848565b73ffffffffffffffffffffffffffffffffffffffff161461068c576040517f08c379a0000000000000000000000000000000000000000000000000000000008152600401610683906118d7565b60405180910390fd5b600160028111156106c6577f4e487b7100000000000000000000000000000000000000000000000000000000600052602160045260246000fd5b600460149054906101000a900460ff16600281111561070e577f4e487b7100000000000000000000000000000000000000000000000000000000600052602160045260246000fd5b1461074e576040517f08c379a0000000000000000000000000000000000000000000000000000000008152600401610745906118f7565b60405180910390fd5b6000600460146101000a81548160ff0219169083600281111561079a577f4e487b7100000000000000000000000000000000000000000000000000000000600052602160045260246000fd5b0217905550565b60085481565b600460149054906101000a900460ff1681565b60065481565b6107c8610bc1565b73ffffffffffffffffffffffffffffffffffffffff166107e6610848565b73ffffffffffffffffffffffffffffffffffffffff161461083c576040517f08c379a0000000000000000000000000000000000000000000000000000000008152600401610833906118d7565b60405180910390fd5b6108466000610d2a565b565b60008060009054906101000a900473ffffffffffffffffffffffffffffffffffffffff16905090565b7f000000000000000000000000000000000000000000000000000000000000000073ffffffffffffffffffffffffffffffffffffffff163373ffffffffffffffffffffffffffffffffffffffff16146108ff576040517f08c379a00000000000000000000000000000000000000000000000000000000081526004016108f690611917565b60405180910390fd5b6109098282610dee565b5050565b60055481565b60035481565b60006002811115610953577f4e487b7100000000000000000000000000000000000000000000000000000000600052602160045260246000fd5b600460149054906101000a900460ff16600281111561099b577f4e487b7100000000000000000000000000000000000000000000000000000000600052602160045260246000fd5b146109db576040517f08c379a00000000000000000000000000000000000000000000000000000000081526004016109d2906118b7565b60405180910390fd5b6109e3610349565b341015610a25576040517f08c379a0000000000000000000000000000000000000000000000000000000008152600401610a1c90611857565b60405180910390fd5b6002339080600181540180825580915050600190039060005260206000200160009091909190916101000a81548173ffffffffffffffffffffffffffffffffffffffff021916908373ffffffffffffffffffffffffffffffffffffffff160217905550565b610a92610bc1565b73ffffffffffffffffffffffffffffffffffffffff16610ab0610848565b73ffffffffffffffffffffffffffffffffffffffff1614610b06576040517f08c379a0000000000000000000000000000000000000000000000000000000008152600401610afd906118d7565b60405180910390fd5b600073ffffffffffffffffffffffffffffffffffffffff168173ffffffffffffffffffffffffffffffffffffffff161415610b76576040517f08c379a0000000000000000000000000000000000000000000000000000000008152600401610b6d90611837565b60405180910390fd5b610b7f81610d2a565b50565b60028181548110610b9257600080fd5b906000526020600020016000915054906101000a900473ffffffffffffffffffffffffffffffffffffffff1681565b600033905090565b60007f000000000000000000000000000000000000000000000000000000000000000073ffffffffffffffffffffffffffffffffffffffff16634000aea07f000000000000000000000000000000000000000000000000000000000000000084866000604051602001610c3d9291906117ae565b6040516020818303038152906040526040518463ffffffff1660e01b8152600401610c6a93929190611755565b602060405180830381600087803b158015610c8457600080fd5b505af1158015610c98573d6000803e3d6000fd5b505050506040513d601f19601f82011682018060405250810190610cbc91906112ca565b506000610cdf8460003060016000898152602001908152602001600020546110f8565b9050600180600086815260200190815260200160002054610d00919061197f565b6001600086815260200190815260200160002081905550610d218482611134565b91505092915050565b60008060009054906101000a900473ffffffffffffffffffffffffffffffffffffffff169050816000806101000a81548173ffffffffffffffffffffffffffffffffffffffff021916908373ffffffffffffffffffffffffffffffffffffffff1602179055508173ffffffffffffffffffffffffffffffffffffffff168173ffffffffffffffffffffffffffffffffffffffff167f8be0079c531659141344cd1fd0a4f28419497f9722a3daafe3b4186f6b6457e060405160405180910390a35050565b600280811115610e27577f4e487b7100000000000000000000000000000000000000000000000000000000600052602160045260246000fd5b600460149054906101000a900460ff166002811115610e6f577f4e487b7100000000000000000000000000000000000000000000000000000000600052602160045260246000fd5b14610eaf576040517f08c379a0000000000000000000000000000000000000000000000000000000008152600401610ea690611897565b60405180910390fd5b60008111610ef2576040517f08c379a0000000000000000000000000000000000000000000000000000000008152600401610ee990611877565b60405180910390fd5b80600881905550600060028054905082610f0c9190611b50565b905060028181548110610f48577f4e487b7100000000000000000000000000000000000000000000000000000000600052603260045260246000fd5b9060005260206000200160009054906101000a900473ffffffffffffffffffffffffffffffffffffffff16600760006101000a81548173ffffffffffffffffffffffffffffffffffffffff021916908373ffffffffffffffffffffffffffffffffffffffff160217905550600760009054906101000a900473ffffffffffffffffffffffffffffffffffffffff1673ffffffffffffffffffffffffffffffffffffffff166108fc479081150290604051600060405180830381858888f1935050505015801561101b573d6000803e3d6000fd5b50600067ffffffffffffffff81111561105d577f4e487b7100000000000000000000000000000000000000000000000000000000600052604160045260246000fd5b60405190808252806020026020018201604052801561108b5781602001602082028036833780820191505090505b50600290805190602001906110a1929190611167565b506001600460146101000a81548160ff021916908360028111156110ee577f4e487b7100000000000000000000000000000000000000000000000000000000600052602160045260246000fd5b0217905550505050565b60008484848460405160200161111194939291906117d7565b6040516020818303038152906040528051906020012060001c9050949350505050565b600082826040516020016111499291906116f3565b60405160208183030381529060405280519060200120905092915050565b8280548282559060005260206000209081019282156111e0579160200282015b828111156111df5782518260006101000a81548173ffffffffffffffffffffffffffffffffffffffff021916908373ffffffffffffffffffffffffffffffffffffffff16021790555091602001919060010190611187565b5b5090506111ed91906111f1565b5090565b5b8082111561120a5760008160009055506001016111f2565b5090565b60008135905061121d81611c33565b92915050565b60008151905061123281611c4a565b92915050565b60008135905061124781611c61565b92915050565b60008151905061125c81611c78565b92915050565b60008135905061127181611c8f565b92915050565b60008151905061128681611c8f565b92915050565b60008151905061129b81611ca6565b92915050565b6000602082840312156112b357600080fd5b60006112c18482850161120e565b91505092915050565b6000602082840312156112dc57600080fd5b60006112ea84828501611223565b91505092915050565b6000806040838503121561130657600080fd5b600061131485828601611238565b925050602061132585828601611262565b9150509250929050565b60006020828403121561134157600080fd5b600061134f84828501611262565b91505092915050565b600080600080600060a0868803121561137057600080fd5b600061137e8882890161128c565b955050602061138f8882890161124d565b94505060406113a088828901611277565b93505060606113b188828901611277565b92505060806113c28882890161128c565b9150509295509295909350565b6113d881611a72565b82525050565b6113e781611a60565b82525050565b6113f681611a90565b82525050565b61140d61140882611a90565b611b3c565b82525050565b600061141e82611952565b611428818561195d565b9350611438818560208601611b09565b61144181611c0e565b840191505092915050565b61145581611af7565b82525050565b600061146860268361196e565b91507f4f776e61626c653a206e6577206f776e657220697320746865207a65726f206160008301527f64647265737300000000000000000000000000000000000000000000000000006020830152604082019050919050565b60006114ce60278361196e565b91507f496e73756666696369656e742066756e647320746f20656e746572207468652060008301527f6c6f7474657279000000000000000000000000000000000000000000000000006020830152604082019050919050565b6000611534601e8361196e565b91507f412072616e646f6d206e756d62657220776173206e6f7420666f756e642e00006000830152602082019050919050565b6000611574602f8361196e565b91507f4c6f7474657279206973206e6f7420696e207468652063616c63756c6174696e60008301527f672077696e6e65722073746174652e00000000000000000000000000000000006020830152604082019050919050565b60006115da60148361196e565b91507f4c6f7474657279206973206e6f74206f70656e2e0000000000000000000000006000830152602082019050919050565b600061161a60208361196e565b91507f4f776e61626c653a2063616c6c6572206973206e6f7420746865206f776e65726000830152602082019050919050565b600061165a60188361196e565b91507f4c6f747465727920697320616c7265616479206f70656e2e00000000000000006000830152602082019050919050565b600061169a601f8361196e565b91507f4f6e6c7920565246436f6f7264696e61746f722063616e2066756c66696c6c006000830152602082019050919050565b6116d681611ad7565b82525050565b6116ed6116e882611ad7565b611b46565b82525050565b60006116ff82856113fc565b60208201915061170f82846116dc565b6020820191508190509392505050565b600060208201905061173460008301846113de565b92915050565b600060208201905061174f60008301846113cf565b92915050565b600060608201905061176a60008301866113de565b61177760208301856116cd565b81810360408301526117898184611413565b9050949350505050565b60006020820190506117a860008301846113ed565b92915050565b60006040820190506117c360008301856113ed565b6117d060208301846116cd565b9392505050565b60006080820190506117ec60008301876113ed565b6117f960208301866116cd565b61180660408301856113de565b61181360608301846116cd565b95945050505050565b6000602082019050611831600083018461144c565b92915050565b600060208201905081810360008301526118508161145b565b9050919050565b60006020820190508181036000830152611870816114c1565b9050919050565b6000602082019050818103600083015261189081611527565b9050919050565b600060208201905081810360008301526118b081611567565b9050919050565b600060208201905081810360008301526118d0816115cd565b9050919050565b600060208201905081810360008301526118f08161160d565b9050919050565b600060208201905081810360008301526119108161164d565b9050919050565b600060208201905081810360008301526119308161168d565b9050919050565b600060208201905061194c60008301846116cd565b92915050565b600081519050919050565b600082825260208201905092915050565b600082825260208201905092915050565b600061198a82611ad7565b915061199583611ad7565b9250827fffffffffffffffffffffffffffffffffffffffffffffffffffffffffffffffff038211156119ca576119c9611b81565b5b828201905092915050565b60006119e082611ad7565b91506119eb83611ad7565b9250826119fb576119fa611bb0565b5b828204905092915050565b6000611a1182611ad7565b9150611a1c83611ad7565b9250817fffffffffffffffffffffffffffffffffffffffffffffffffffffffffffffffff0483118215151615611a5557611a54611b81565b5b828202905092915050565b6000611a6b82611ab7565b9050919050565b6000611a7d82611ab7565b9050919050565b60008115159050919050565b6000819050919050565b6000819050611aa882611c1f565b919050565b6000819050919050565b600073ffffffffffffffffffffffffffffffffffffffff82169050919050565b6000819050919050565b600069ffffffffffffffffffff82169050919050565b6000611b0282611a9a565b9050919050565b60005b83811015611b27578082015181840152602081019050611b0c565b83811115611b36576000848401525b50505050565b6000819050919050565b6000819050919050565b6000611b5b82611ad7565b9150611b6683611ad7565b925082611b7657611b75611bb0565b5b828206905092915050565b7f4e487b7100000000000000000000000000000000000000000000000000000000600052601160045260246000fd5b7f4e487b7100000000000000000000000000000000000000000000000000000000600052601260045260246000fd5b7f4e487b7100000000000000000000000000000000000000000000000000000000600052602160045260246000fd5b6000601f19601f8301169050919050565b60038110611c3057611c2f611bdf565b5b50565b611c3c81611a60565b8114611c4757600080fd5b50565b611c5381611a84565b8114611c5e57600080fd5b50565b611c6a81611a90565b8114611c7557600080fd5b50565b611c8181611aad565b8114611c8c57600080fd5b50565b611c9881611ad7565b8114611ca357600080fd5b50565b611caf81611ae1565b8114611cba57600080fd5b5056fea26469706673582212208edd3e585e248cf6185e5eea06d9ee7f0ec66ba1f6288015cd85ce934428849d64736f6c63430008000033",
  "devdoc": {
    "kind": "dev",
    "methods": {
      "owner()": {
        "details": "Returns the address of the current owner."
      },
      "renounceOwnership()": {
        "details": "Leaves the contract without owner. It will not be possible to call `onlyOwner` functions anymore. Can only be called by the current owner. NOTE: Renouncing ownership will leave the contract without an owner, thereby removing any functionality that is only available to the owner."
      },
      "transferOwnership(address)": {
        "details": "Transfers ownership of the contract to a new account (`newOwner`). Can only be called by the current owner."
      }
    },
    "version": 1
  },
  "userdoc": {
    "kind": "user",
    "methods": {},
    "version": 1
  },
  "storageLayout": {
    "storage": [
      {
        "astId": 319,
        "contract": "contracts/Lottery.sol:Lottery",
        "label": "_owner",
        "offset": 0,
        "slot": "0",
        "type": "t_address"
      },
      {
        "astId": 79,
        "contract": "contracts/Lottery.sol:Lottery",
        "label": "nonces",
        "offset": 0,
        "slot": "1",
        "type": "t_mapping(t_bytes32,t_uint256)"
      },
      {
        "astId": 450,
        "contract": "contracts/Lottery.sol:Lottery",
        "label": "players",
        "offset": 0,
        "slot": "2",
        "type": "t_array(t_address_payable)dyn_storage"
      },
      {
        "astId": 452,
        "contract": "contracts/Lottery.sol:Lottery",
        "label": "usdEntranceFee",
        "offset": 0,
        "slot": "3",
        "type": "t_uint256"
      },
      {
        "astId": 455,
        "contract": "contracts/Lottery.sol:Lottery",
        "label": "ethUsdPriceFeed",
        "offset": 0,
        "slot": "4",
        "type": "t_contract(AggregatorV3Interface)216"
      },
      {
        "astId": 462,
        "contract": "contracts/Lottery.sol:Lottery",
        "label": "lotteryState",
        "offset": 20,
        "slot": "4",
        "type": "t_enum(LOTTERY_STATE)459"
      },
      {
        "astId": 464,
        "contract": "contracts/Lottery.sol:Lottery",
        "label": "fee",
        "offset": 0,
        "slot": "5",
        "type": "t_uint256"
      },
      {
        "astId": 466,
        "contract": "contracts/Lottery.sol:Lottery",
        "label": "keyhash",
        "offset": 0,
        "slot": "6",
        "type": "t_bytes32"
      },
      {
        "astId": 468,
        "contract": "contracts/Lottery.sol:Lottery",
        "label": "latestWinner",
        "offset": 0,
        "slot": "7",
        "type": "t_address_payable"
      },
      {
        "astId": 470,
        "contract": "contracts/Lottery.sol:Lottery",
        "label": "latestRandomNumber",
        "offset": 0,
        "slot": "8",
        "type": "t_uint256"
      }
    ],
    "types": {
      "t_address": {
        "encoding": "inplace",
        "label": "address",
        "numberOfBytes": "20"
      },
      "t_address_payable": {
        "encoding": "inplace",
        "label": "address payable",
        "numberOfBytes": "20"
      },
      "t_array(t_address_payable)dyn_storage": {
        "base": "t_address_payable",
        "encoding": "dynamic_array",
        "label": "address payable[]",
        "numberOfBytes": "32"
      },
      "t_bytes32": {
        "encoding": "inplace",
        "label": "bytes32",
        "numberOfBytes": "32"
      },
      "t_contract(AggregatorV3Interface)216": {
        "encoding": "inplace",
        "label": "contract AggregatorV3Interface",
        "numberOfBytes": "20"
      },
      "t_enum(LOTTERY_STATE)459": {
        "encoding": "inplace",
        "label": "enum Lottery.LOTTERY_STATE",
        "numberOfBytes": "1"
      },
      "t_mapping(t_bytes32,t_uint256)": {
        "encoding": "mapping",
        "key": "t_bytes32",
        "label": "mapping(bytes32 => uint256)",
        "numberOfBytes": "32",
        "value": "t_uint256"
      },
      "t_uint256": {
        "encoding": "inplace",
        "label": "uint256",
        "numberOfBytes": "32"
      }
    }
  }
}